:03000000020D28C6
:0C0D2800787FE4F6D8FD758162020D6F43
:100F1600C2A6C2A5C2A78F807F017E00120EF8D29C
:0B0F2600A77F017E00120EF8C2A72278
:0A0EB000AB48AA49A94A120544FF05
:100EBA00D2A6C2A5C2A78F807F017E00120EF8D2E9
:0B0ECA00A77F017E00120EF8C2A722D5
:100F31007F38120F167F0C120F167F06120F167FC5
:040F410001020F1684
:050F7E007F01020F16C7
:080C95008F478B488A49894A08
:100C9D00E4F54BEDD394014003020D27E547940F86
:100CAD005078EDC394015039AB48AA49A94A1205B1
:100CBD00446067C374109547FFE54BC39FE54B50E8
:100CCD0006248025478004254724B0FF120F1612F5
:100CDD000EB07401254AF54AE43549F549054B80B6
:100CED00C7AB48AA49A94A120544602EC374109592
:100CFD0047FFE54BC39FE54B500624C025478004B5
:100D0D0025472470FF120F16120EB07401254AF5F7
:0A0D1D004AE43549F549054B80C74B
:010D270022A9
:100E8A00E4F547F5487FC0120F16E4F547F5487FA9
:100E9A0020120EBA0548E54870020547C39410E5CA
:050EAA0047940040EA3E
:010EAF002220
:100ED500252E3266004C4556454C3A004C3A006D7D
:100EE50000483A004D414E55414C20434F4E545217
:030EF5004F4C005F
:0C0F5600043A3F000000042A4040000064
:100A4F00C2A4120F45120F31120F7E754AFF754B5C
:100A5F000E754CD5853D50853C4F853B4E853A4DA7
:100A6F007B007A00792E12063C754AFF754B0E7586
:100A7F004CD5852D50852C4F852B4E852A4D7B00CF
:100A8F007A00793F12063C7BFF7A0E79DAE4FDFF9C
:100A9F00120C957BFF7A0E79E17D01E4FF120C9524
:100AAF007B007A00792E7D017F02120C957BFF7AF5
:100ABF000E79E47D017F06120C957BFF7A0E79E6A5
:100ACF007D017F08120C957B007A00793F7D017FB5
:100ADF000A120C957BFF7A0E79E47D017F0E120CC2
:100AEF0095120F71120DB48F398E388D378C367574
:100AFF004AFF754B0E754CD58F508E4F8D4E8C4DCA
:100B0F007B007A00792212063C7B007A007922E47E
:100B1F00FD7F09120C957BFF7A0E79E4E4FD7F0DC2
:100B2F00120C9520977B120E8A7BFF7A0E79E97D46
:100B3F00017F01120C952097607F01120E17BF03E2
:100B4F0002D2A47F01120E17BF0402C2A4120DB469
:100B5F008F398E388D378C36754AFF754B0E754C25
:100B6F00D58F508E4F8D4E8C4D7B007A007922128F
:100B7F00063C7B007A007922E4FD7F09120C957BFD
:100B8F00FF7A0E79E4E4FD7F0D120C95E4F58CF5F8
:100B9F008A7F50FE120EF8809DC2A4120E8A020C9C
:100BAF00877BFF7A0E79E17D01E4FF120C957B00C4
:100BBF007A00792E7D017F02120C957BFF7A0E79D8
:100BCF00E47D017F06120C957BFF7A0E79E67D019D
:100BDF007F08120C957B007A00793F7D017F0A1206
:100BEF000C957BFF7A0E79E47D017F0E120C95AF89
:100BFF003DAE3CAD3BAC3AAB39AA38A937A836125B
:100C0F0001A95074D2A4120DB48F398E388D378C40
:100C1F0036209704C2A48060AF2DAE2CAD2BAC2A2A
:100C2F00AB39AA38A937A8361201A960064004C209
:100C3F00A48045754AFF754B0E754CD58539508587
:100C4F00384F85374E85364D7B007A007922120654
:100C5F003C7B007A007922E4FD7F09120C957BFF23
:100C6F007A0E79E4E4FD7F0D120C95E4F58CF58A8C
:100C7F007F50FE120EF8808EE4F58CF58A7F50FEC1
:060C8F00120EF8020AF348
:0B0F6600EF1FAC0670011E4C70F6225D
:100EF800D3EF9400EE940040147D6E7C00ED1D70DD
:0D0F0800011CED4C70F7EF1F70E61E80E33A
:010F150022B9
:100F4500758901E4F58CF58AC2AFC2A9C28CC28D40
:010F55002279
:050F7800007F07DFFE11
:010F7D002251
:070F7100C2A1D2A0020F454E
:100DB400754E13754DE9754C81754B3FD2A1120FD9
:100DC40078C2A130A0FDE4F58CF58AD28C20A0FD78
:100DD400C28CAF8CEFFEAD8A7C00E42DFDEC3EFCB2
:100DE400E41202277B077A4279B27839120003E4CD
:100DF400FBFAF9784012010C8F4A8E498D488C47D2
:100E0400AF4EAE4DAD4CAC4BAB4AAA49A948A8472E
:030E1400020003D6
:030F620001080182
:100E1700EF6003750801E5086401702E30B10930F1
:100E2700B20630B30320B6227FE87E03120F66E4D2
:100E3700F50820B1037F012220B2037F022220B3ED
:100E4700037F032220B6127F042230B10C30B2098F
:0B0E570030B30630B6037508017F00C1
:010E6200226D
:10000300EC4D6011E8497017ED33EC3304600DE4F7
:10001300FCFFFEFD22E933E8330470F80202951277
:10002300026058046009E4CC248150062850090278
:10003300029F28400302029CC0E0EB4A7044B9804F
:1000430006D0E0FB02028BEF4E701CBD8008EBFF75
:10005300EAFEE9FD80EBE98DF0A4FEE5F00200EC99
:10006300E9CDF9EAFEEBFFEF89F0A4FCE5F0CE89D8
:10007300F0A42EFFE435F0CD89F0A42DFEE435F095
:100083008067EF4E7005BD80D780C3EF8BF0A4ACC3
:10009300F0EE8BF0A42CFCE435F0F8EF8AF0A42CFE
:1000A300E5F038FCE433CB8DF0A42CFCE5F03BF811
:1000B300EE8AF0A42CFCE5F038F8E433CF89F0A401
:1000C3002CFCE5F038CF3400CE89F0A42FFFE5F007
:1000D3003EFEE433C98DF0A42EFEE5F039CD8AF05F
:1000E300A42FFFE5F03EFEE43DFD33D0E0FB5007D7
:1000F3000BBB000F02029FEC2CFCEF33FFEE33FE31
:06010300ED33FD0202775E
:1001090002029FEC5D046005E85904700302029540
:10011900120260580460F6EC4860F2EC7004FDFECF
:10012900FF22C860DB2481C85009C39860025006C9
:1001390002029C9850CAF582E9294B4A7005AB82A4
:1001490002028B75F0007C1A7880C3EF9BEE9AED62
:1001590099400DC3EF9BFFEE9AFEED99FDE842F041
:10016900DC23ACF0D0E0FFD0E0FED0E0FDAB822094
:10017900E7101BEB60BAEC2CFCEF33FFEE33FEED1E
:1001890033FD020277E803F830E705C0F075F000A7
:10019900EF2FFFEE33FEED33FD40B830E7C280AA02
:1001A90074F8CC6480CCC86480C8F58204604FC3FD
:1001B900EB9FF5F0EA9E42F0E99D42F0E89C45F09C
:1001C900603C501DE5825FFFE582D313CB5BCBF426
:1001D9002B5582FB50280ABA002409B9002008804F
:1001E9001DE5825BFBE582D313CF5FCFF4C3132FE9
:1001F9005582FF50090EBE00050DBD00010CC3EB71
:100209009FF5F0EA9E42F0E99D42F0E89C45F060D6
:0902190007CC4820E701B3EC22F8
:1002220075F020800E75F010800575F0087D007E57
:10023200007F003392D530D50312059CEC33401079
:10024200EF33FFEE33FEED33FDEC33FCD5F0ED2260
:0E025200E5F0247EA2D513CC92E7CDCEFF229C
:1005E000E55E244AF8E6055E227847300702784A3D
:1005F000E475F0011205AA0205442000EB7F2ED21B
:10060000008018EF540F2490D43440D4FF30040BF2
:10061000EF24BFB41A0050032461FFE55F600215A8
:100620005F0562E5627002056130070D7847E47589
:10063000F0011205AAEF02058A020E637403D207C5
:100640008003E4C207F55E8B478A488949E4F55F79
:10065000F561F562E55F60077F2012061B80F57586
:1006600060FFC201C200C202C203C205C206C208C4
:100670001205E9FF700D3007057F0012062CAF62EE
:10068000AE6122B4255FC2D5C2041205E9FF24D0B1
:10069000B40A00501A75F00A785F30D50508B6FF25
:1006A0000106C6A426F620D5047002D20380D92400
:1006B000CFB41A00EF5004C2E5D204020919D201E6
:1006C00080C6D20080C0D20280BCD2D580BAD2050A
:1006D00080B47F2012061B2002077401B55F004022
:1006E000F11205E0FF12061B020654D208D2068062
:1006F000951205E0FB1205E0FA1205E0F94A4B708D
:100700000679107A0A7BFF20022EE55F602A7E00C0
:100710008E8275830012055D60060EEE656070F0D6
:10072000C2D5EBC0E0EAC0E0E9C0E0EE120979D042
:10073000E0F9D0E0FAD0E0FB120544FF60AAEBC07C
:10074000E0EAC0E0E9C0E012061BD0E02401F9D0E5
:10075000E03400FAD0E0FBE5600460DCD560D980CD
:1007600087D20280A212095C60F7E5607001041272
:1007700002AAA960600DE560600914F560120A0321
:10078000EF60F3EA30E702F404C3995077EAF42506
:10079000600430E701E404F560800D12095C60C17B
:1007A000EA056025601202AAEA785DF630E701E406
:1007B000256004D5600420050114120979E4C0E025
:1007C000120A03785DE6601320E70714F6120603A9
:1007D000802204F6D0E014C0E07F00120603E5603A
:1007E00060071205FA1560800B3005031205FAD078
:1007F000E0020654D0E00480C512095C60A0E56008
:10080000041202AA785DEAF6E560200502600104A0
:05081000240412097927
:1008150074FF04C0E0120A03120603E56020050216
:1008250060031205FAD0E0B560E87F4512060D7841
:100835005DE67F2B30E7047F2DF404C0E012061B34
:10084500D0E075F00A84C0F0120604D0E012060468
:10085500020654791080027908C206C2088008D2BF
:10086500D5790A8004790AC2D5E560047002F5607D
:10087500E4FAFDFEFF1205E0FC7B082001131205DA
:10088500E0FD7B1030000A1205E0FE1205E0FF7B5B
:1008950020EC3382D592D55013C3E43000069FFF78
:1008A500E49EFEE42001039DFDE49CFCE4CBF8C23C
:1008B50001EC700CCFCECDCCE824F8F870F380179E
:1008C500C3EF33FFEE33FEED33FDEC33FCEB33FBCF
:1008D500994002FB0FD8E9EB300105F8D0E0C44898
:1008E500B201C0E00AEC4D4E4F78207B0070C2EAA1
:1008F500B5600040BCC0E012097BD0F0D0E020011B
:1009050004C4C0E0C4B201C0F0120604D0F0D5F0B2
:10091500EB0206541205BA06F15308585806C24CA4
:1009250006BE42085C4F08644408644906D743087C
:100935006A55079B4607F9450765470A305006C6BD
:100945002D06CA2E06ED2B06CE2306EB200A192A04
:10095500068648000006E5E560B4FF0375600612EB
:1009650005E0FC1205E0FD1205E0FE1205E0FF784A
:10097500560202D9790AA2D5200314300509B91007
:10098500020404B9080104A2D5200602500104207E
:1009950002689202B55F005034C0E07F2030031931
:1009A5007F30A20272067205500F1209D2C202C22E
:1009B50006C205C2087F30800F300503E9C0E0128A
:1009C500061B300503D0E0F9D0E0B55FCC30051744
:1009D5007F30B9100C12061B7F583004077F7880D2
:1009E50003B9080312061B3002057F2D02061B7F83
:1009F500202008F87F2B2006F322920280CF7F006B
:100A0500B4070050052456F8E6FF22286E756C6C75
:100A15002900D2011205E03001F8C201785F30D516
:100A25000108F60206862D504349581205E02403B5
:100A3500B405004001E4900A2B9312060C743A1297
:0A0A4500060CD203755F0402085886
:10026000E9D2E7C933E833F892D5EDD2E7CD33ECE4
:0702700033FC5002B2D5225D
:10027700EC30E7100FBF000C0EBE00080DBD0004E8
:100287000BEB6014A2D5EB13FCED92E7FD2274FF94
:10029700FCFDFEFF22E480F8A2D574FF13FC7D80ED
:0302A700E480EF01
:1002AA00F920E72824F950037907E4F42402FB181B
:1002BA00DBFDE624FB5014E9600DE4F618E604F6CB
:0F02CA00B40A08E4F6D9F57401F60A22C2D52267
:1002D900ED33EC3392D5FA602AB4FF33EDC2E77BF4
:1002E900FF60067A0279FEE4227A03790720D504B1
:1002F9007A037902224E614E002B494E46002D4960
:100309004E4600E47A08F608DAFC7B00740722E816
:10031900C0E0ECC0E0EDC0E0EEC0E0EFC0E0EA759F
:10032900F010A4CAABF075F04DA42BFBE435F0FC3A
:10033900EA2410FAEB34C5FBEC34D9FCEDC2E7FF33
:1003490075F056A4F42411C5F0F434C58FF0A42A2D
:10035900E5F03BE43CF620E714120504D0E0FFD0B9
:10036900E0FED0E0FDD0E0FC12010C8014F4041290
:100379000504D0E0FFD0E0FED0E0FDD0E0FC1200A3
:1003890003D0E0F8E6FAEDD2E7CD33EC332482FB73
:10039900E4C3CF33CFCE33CECD33CD33DBF37B07BD
:1003A90075F00A846004F6081B0AE5F0F6088FF078
:1003B900740AA4FFACF08EF0740AA42CFEACF050C1
:1003C900010C8DF0740AA42CFDE435F0F608DBDE8F
:0303D90074072284
:1003DC00020295E86480F8E933E83360110460F0B8
:1003EC00ED33EC337009E8FCE9FDEAFEEBFF220487
:1003FC0060DED3EB9FEA9EE99DE8C2E78CF0C2F782
:10040C0095F0400CE8CCF8E9CDF9EACEFAEBCFFB4D
:10041C0012026085D0F05804700320D5B3E8047044
:10042C00075002B2D502029F92D5EC0460F7E4CCDF
:10043C00C0E0C398F8603B94186008400DD0E0FB16
:10044C00020277E4FBFAC9FC8028E830E406E4C930
:10045C00FBE4CAFCE830E305E4C9CACBFCE854076A
:10046C006010F8C3E913F9EA13FAEB13FBEC13FC75
:10047C00D8F130F52FC3E49CFCEF9BFFEE9AFEED18
:10048C0099FDD0E0FBEF4E4D4C701222DB030202C3
:10049C009CEC2CFCEF33FFEE33FEED33FDED30E73F
:1004AC00EB020277EF2BFFEE3AFEED39FDD0E0FBCD
:1004BC0050130BBB000302029FED13FDEE13FEEF76
:0804CC0013FFEC13FC020277A0
:1004D4003F8000004120000042C80000447A000030
:1004E400461C400047C35000497424004B189680B2
:1004F4004CBEBC205A0E1BCA6753C21C749DC5AEA9
:10050400FB60065407601C2323120532EB54386049
:100514000912051E12052D120003ECF8EDF9EEFA8E
:10052400EFCB22EB12052D80F1543803241C9004E8
:10053400D4FE93FC0EEE93FD0EEE930ECE93FF22AB
:100D3400020A4FE493A3F8E493A34003F68001F27C
:100D440008DFF48029E493A3F85407240CC8C333C0
:100D5400C4540F4420C8834004F456800146F6DF8F
:100D6400E4800B0102040810204080900F56E47EBA
:100D7400019360BCA3FF543F30E509541FFEE49384
:100D8400A360010ECF54C025E060A840B8E493A34B
:100D9400FAE493A3F8E493A3C8C582C8CAC583CA76
:100DA400F0A3C8C582C8CAC583CADFE9DEE780BE2E
:010F6500008B
:10054400BB010689828A83E0225002E722BBFE02B5
:09055400E32289828A83E49322E8
:10055D00BB010CE58229F582E5833AF583E0225053
:10056D0006E92582F8E622BBFE06E92582F8E2229D
:0D057D00E58229F582E5833AF583E49322B7
:10058A00BB010689828A83F0225002F722BBFE0150
:02059A00F3224A
:0E059C00C3E49FFFE49EFEE49DFDE49CFC2270
:1005AA00FAE6FB0808E6F925F0F618E6CA3AF62252
:1005BA00D083D082F8E4937012740193700DA3A3D0
:1005CA0093F8740193F5828883E4737402936860E4
:0605DA00EFA3A3A380DFE4
:100E6300EFB40A07740D120E6E740A309811A89924
:100E7300B8130CC2983098FDA899C298B811F630EF
:070E830099FDC299F59922C7
:00000001FF
